{
  "address": "0x1aa1e61369874bae3444A8Ef6528d6b13D6952EF",
  "abi": [
    {
      "inputs": [
        {
          "internalType": "contract IERC20",
          "name": "ichi_",
          "type": "address"
        },
        {
          "internalType": "uint256",
          "name": "commencement_",
          "type": "uint256"
        },
        {
          "internalType": "uint256",
          "name": "durationDays_",
          "type": "uint256"
        }
      ],
      "stateMutability": "nonpayable",
      "type": "constructor"
    },
    {
      "anonymous": false,
      "inputs": [
        {
          "indexed": true,
          "internalType": "address",
          "name": "owner",
          "type": "address"
        },
        {
          "indexed": true,
          "internalType": "address",
          "name": "spender",
          "type": "address"
        },
        {
          "indexed": false,
          "internalType": "uint256",
          "name": "value",
          "type": "uint256"
        }
      ],
      "name": "Approval",
      "type": "event"
    },
    {
      "anonymous": false,
      "inputs": [
        {
          "indexed": false,
          "internalType": "address",
          "name": "user",
          "type": "address"
        },
        {
          "indexed": false,
          "internalType": "address",
          "name": "to",
          "type": "address"
        },
        {
          "indexed": false,
          "internalType": "uint256",
          "name": "ally",
          "type": "uint256"
        },
        {
          "indexed": false,
          "internalType": "uint256",
          "name": "ichi",
          "type": "uint256"
        }
      ],
      "name": "ClaimIchi",
      "type": "event"
    },
    {
      "anonymous": false,
      "inputs": [
        {
          "indexed": false,
          "internalType": "address",
          "name": "deployer",
          "type": "address"
        },
        {
          "indexed": false,
          "internalType": "contract IERC20",
          "name": "ichi",
          "type": "address"
        },
        {
          "indexed": false,
          "internalType": "uint256",
          "name": "commencement",
          "type": "uint256"
        },
        {
          "indexed": false,
          "internalType": "uint256",
          "name": "durationDays",
          "type": "uint256"
        }
      ],
      "name": "Deployed",
      "type": "event"
    },
    {
      "anonymous": false,
      "inputs": [
        {
          "indexed": false,
          "internalType": "contract IERC20",
          "name": "token",
          "type": "address"
        },
        {
          "indexed": false,
          "internalType": "uint256",
          "name": "amount",
          "type": "uint256"
        },
        {
          "indexed": false,
          "internalType": "address",
          "name": "to",
          "type": "address"
        }
      ],
      "name": "EmergencyWithdrawal",
      "type": "event"
    },
    {
      "anonymous": false,
      "inputs": [
        {
          "indexed": true,
          "internalType": "address",
          "name": "previousOwner",
          "type": "address"
        },
        {
          "indexed": true,
          "internalType": "address",
          "name": "newOwner",
          "type": "address"
        }
      ],
      "name": "OwnershipTransferred",
      "type": "event"
    },
    {
      "anonymous": false,
      "inputs": [
        {
          "indexed": true,
          "internalType": "address",
          "name": "from",
          "type": "address"
        },
        {
          "indexed": true,
          "internalType": "address",
          "name": "to",
          "type": "address"
        },
        {
          "indexed": false,
          "internalType": "uint256",
          "name": "value",
          "type": "uint256"
        }
      ],
      "name": "Transfer",
      "type": "event"
    },
    {
      "inputs": [],
      "name": "ageSeconds",
      "outputs": [
        {
          "internalType": "uint256",
          "name": "elapsedSeconds",
          "type": "uint256"
        }
      ],
      "stateMutability": "view",
      "type": "function"
    },
    {
      "inputs": [
        {
          "internalType": "address",
          "name": "owner",
          "type": "address"
        },
        {
          "internalType": "address",
          "name": "spender",
          "type": "address"
        }
      ],
      "name": "allowance",
      "outputs": [
        {
          "internalType": "uint256",
          "name": "",
          "type": "uint256"
        }
      ],
      "stateMutability": "view",
      "type": "function"
    },
    {
      "inputs": [
        {
          "internalType": "address",
          "name": "spender",
          "type": "address"
        },
        {
          "internalType": "uint256",
          "name": "amount",
          "type": "uint256"
        }
      ],
      "name": "approve",
      "outputs": [
        {
          "internalType": "bool",
          "name": "",
          "type": "bool"
        }
      ],
      "stateMutability": "nonpayable",
      "type": "function"
    },
    {
      "inputs": [
        {
          "internalType": "address",
          "name": "account",
          "type": "address"
        }
      ],
      "name": "balanceOf",
      "outputs": [
        {
          "internalType": "uint256",
          "name": "",
          "type": "uint256"
        }
      ],
      "stateMutability": "view",
      "type": "function"
    },
    {
      "inputs": [
        {
          "internalType": "uint256",
          "name": "amount",
          "type": "uint256"
        }
      ],
      "name": "burn",
      "outputs": [],
      "stateMutability": "nonpayable",
      "type": "function"
    },
    {
      "inputs": [
        {
          "internalType": "address",
          "name": "account",
          "type": "address"
        },
        {
          "internalType": "uint256",
          "name": "amount",
          "type": "uint256"
        }
      ],
      "name": "burnFrom",
      "outputs": [],
      "stateMutability": "nonpayable",
      "type": "function"
    },
    {
      "inputs": [
        {
          "internalType": "uint256",
          "name": "amountAlly",
          "type": "uint256"
        },
        {
          "internalType": "address",
          "name": "to",
          "type": "address"
        }
      ],
      "name": "claimIchi",
      "outputs": [
        {
          "internalType": "uint256",
          "name": "amountIchi",
          "type": "uint256"
        }
      ],
      "stateMutability": "nonpayable",
      "type": "function"
    },
    {
      "inputs": [],
      "name": "commencement",
      "outputs": [
        {
          "internalType": "uint256",
          "name": "",
          "type": "uint256"
        }
      ],
      "stateMutability": "view",
      "type": "function"
    },
    {
      "inputs": [],
      "name": "complete",
      "outputs": [
        {
          "internalType": "bool",
          "name": "isComplete",
          "type": "bool"
        }
      ],
      "stateMutability": "view",
      "type": "function"
    },
    {
      "inputs": [],
      "name": "decimals",
      "outputs": [
        {
          "internalType": "uint8",
          "name": "",
          "type": "uint8"
        }
      ],
      "stateMutability": "view",
      "type": "function"
    },
    {
      "inputs": [
        {
          "internalType": "address",
          "name": "spender",
          "type": "address"
        },
        {
          "internalType": "uint256",
          "name": "subtractedValue",
          "type": "uint256"
        }
      ],
      "name": "decreaseAllowance",
      "outputs": [
        {
          "internalType": "bool",
          "name": "",
          "type": "bool"
        }
      ],
      "stateMutability": "nonpayable",
      "type": "function"
    },
    {
      "inputs": [],
      "name": "durationSeconds",
      "outputs": [
        {
          "internalType": "uint256",
          "name": "",
          "type": "uint256"
        }
      ],
      "stateMutability": "view",
      "type": "function"
    },
    {
      "inputs": [
        {
          "internalType": "contract IERC20",
          "name": "token",
          "type": "address"
        },
        {
          "internalType": "uint256",
          "name": "amount",
          "type": "uint256"
        },
        {
          "internalType": "address",
          "name": "to",
          "type": "address"
        }
      ],
      "name": "emergencyWithdraw",
      "outputs": [],
      "stateMutability": "nonpayable",
      "type": "function"
    },
    {
      "inputs": [],
      "name": "ichiBalance",
      "outputs": [
        {
          "internalType": "uint256",
          "name": "ichiOnHand",
          "type": "uint256"
        }
      ],
      "stateMutability": "view",
      "type": "function"
    },
    {
      "inputs": [
        {
          "internalType": "uint256",
          "name": "amountAlly",
          "type": "uint256"
        }
      ],
      "name": "ichiForAlly",
      "outputs": [
        {
          "internalType": "uint256",
          "name": "amountIchi",
          "type": "uint256"
        }
      ],
      "stateMutability": "view",
      "type": "function"
    },
    {
      "inputs": [],
      "name": "ichiPerAlly",
      "outputs": [
        {
          "internalType": "uint256",
          "name": "p18",
          "type": "uint256"
        }
      ],
      "stateMutability": "view",
      "type": "function"
    },
    {
      "inputs": [
        {
          "internalType": "address",
          "name": "spender",
          "type": "address"
        },
        {
          "internalType": "uint256",
          "name": "addedValue",
          "type": "uint256"
        }
      ],
      "name": "increaseAllowance",
      "outputs": [
        {
          "internalType": "bool",
          "name": "",
          "type": "bool"
        }
      ],
      "stateMutability": "nonpayable",
      "type": "function"
    },
    {
      "inputs": [],
      "name": "name",
      "outputs": [
        {
          "internalType": "string",
          "name": "",
          "type": "string"
        }
      ],
      "stateMutability": "view",
      "type": "function"
    },
    {
      "inputs": [],
      "name": "owner",
      "outputs": [
        {
          "internalType": "address",
          "name": "",
          "type": "address"
        }
      ],
      "stateMutability": "view",
      "type": "function"
    },
    {
      "inputs": [],
      "name": "redeemablePercent",
      "outputs": [
        {
          "internalType": "uint256",
          "name": "p18",
          "type": "uint256"
        }
      ],
      "stateMutability": "view",
      "type": "function"
    },
    {
      "inputs": [],
      "name": "renounceOwnership",
      "outputs": [],
      "stateMutability": "nonpayable",
      "type": "function"
    },
    {
      "inputs": [],
      "name": "symbol",
      "outputs": [
        {
          "internalType": "string",
          "name": "",
          "type": "string"
        }
      ],
      "stateMutability": "view",
      "type": "function"
    },
    {
      "inputs": [],
      "name": "totalSupply",
      "outputs": [
        {
          "internalType": "uint256",
          "name": "",
          "type": "uint256"
        }
      ],
      "stateMutability": "view",
      "type": "function"
    },
    {
      "inputs": [
        {
          "internalType": "address",
          "name": "recipient",
          "type": "address"
        },
        {
          "internalType": "uint256",
          "name": "amount",
          "type": "uint256"
        }
      ],
      "name": "transfer",
      "outputs": [
        {
          "internalType": "bool",
          "name": "",
          "type": "bool"
        }
      ],
      "stateMutability": "nonpayable",
      "type": "function"
    },
    {
      "inputs": [
        {
          "internalType": "address",
          "name": "sender",
          "type": "address"
        },
        {
          "internalType": "address",
          "name": "recipient",
          "type": "address"
        },
        {
          "internalType": "uint256",
          "name": "amount",
          "type": "uint256"
        }
      ],
      "name": "transferFrom",
      "outputs": [
        {
          "internalType": "bool",
          "name": "",
          "type": "bool"
        }
      ],
      "stateMutability": "nonpayable",
      "type": "function"
    },
    {
      "inputs": [
        {
          "internalType": "address",
          "name": "newOwner",
          "type": "address"
        }
      ],
      "name": "transferOwnership",
      "outputs": [],
      "stateMutability": "nonpayable",
      "type": "function"
    },
    {
      "inputs": [
        {
          "internalType": "address",
          "name": "user",
          "type": "address"
        }
      ],
      "name": "userBalances",
      "outputs": [
        {
          "internalType": "uint256",
          "name": "allyBalance",
          "type": "uint256"
        },
        {
          "internalType": "uint256",
          "name": "claimable",
          "type": "uint256"
        },
        {
          "internalType": "uint256",
          "name": "uponCompletion",
          "type": "uint256"
        }
      ],
      "stateMutability": "view",
      "type": "function"
    }
  ],
  "transactionHash": "0x326a000aafb977fcb2425665b66b454d1e964d98b6255d990a54a10532737e7a",
  "args": [
    "0x111111517e4929D3dcbdfa7CCe55d30d4B6BC4d6",
    "1652382000",
    1095
  ],
  "numDeployments": 1,
  "solcInputHash": "52fde529ccde3969847ed36152647609",
  "bytecode": "0x60c06040523480156200001157600080fd5b50604051620020a7380380620020a7833981810160405260608110156200003757600080fd5b5080516020808301516040938401518451808601865260098152684943484920416c6c7960b81b81850190815286518088019097526004875263414c4c5960e01b9487019490945280519495929491939092916200009891600391620003e8565b508051620000ae906004906020840190620003e8565b50506005805460ff19166012179055506000620000ca6200020e565b60058054610100600160a81b0319166101006001600160a01b03841690810291909117909155604051919250906000907f8be0079c531659141344cd1fd0a4f28419497f9722a3daafe3b4186f6b6457e0908290a35042821015620001615760405162461bcd60e51b8152600401808060200182810382526036815260200180620020506036913960400191505060405180910390fd5b600680546001600160a01b0319166001600160a01b03851617905560808290526200019c816201518062000212602090811b6200102117901c565b60a052620001b6336a084595161401484a00000062000279565b604080513381526001600160a01b03851660208201528082018490526060810183905290517f863dd289402cf71b29dea8b439af18e7a86b4b02d6ef3c22b7dd04c7c11c1b379181900360800190a150505062000494565b3390565b600082620002235750600062000273565b828202828482816200023157fe5b0414620002705760405162461bcd60e51b8152600401808060200182810382526021815260200180620020866021913960400191505060405180910390fd5b90505b92915050565b6001600160a01b038216620002d5576040805162461bcd60e51b815260206004820152601f60248201527f45524332303a206d696e7420746f20746865207a65726f206164647265737300604482015290519081900360640190fd5b620002e36000838362000388565b620002ff816002546200038d60201b6200107a1790919060201c565b6002556001600160a01b03821660009081526020818152604090912054620003329183906200107a6200038d821b17901c565b6001600160a01b0383166000818152602081815260408083209490945583518581529351929391927fddf252ad1be2c89b69c2b068fc378daa952ba7f163c4a11628f55a4df523b3ef9281900390910190a35050565b505050565b60008282018381101562000270576040805162461bcd60e51b815260206004820152601b60248201527f536166654d6174683a206164646974696f6e206f766572666c6f770000000000604482015290519081900360640190fd5b828054600181600116156101000203166002900490600052602060002090601f0160209004810192826200042057600085556200046b565b82601f106200043b57805160ff19168380011785556200046b565b828001600101855582156200046b579182015b828111156200046b5782518255916020019190600101906200044e565b50620004799291506200047d565b5090565b5b808211156200047957600081556001016200047e565b60805160a051611b7f620004d16000398061079d5280610a675280610d365250806109c85280610aa45280610dd85280610e0b5250611b7f6000f3fe608060405234801561001057600080fd5b50600436106101a95760003560e01c806376aabef4116100f9578063a457c2d711610097578063dd62ed3e11610071578063dd62ed3e146104ed578063eb01f1491461051b578063eb7e285614610523578063f2fde38b1461052b576101a9565b8063a457c2d71461048d578063a9059cbb146104b9578063aab0d336146104e5576101a9565b806385dd19c0116100d357806385dd19c01461042d5780638da5cb5b1461045957806395d89b411461047d5780639acba2af14610485576101a9565b806376aabef4146103f157806379cc6790146103f9578063814d283214610425576101a9565b806334d1adb511610166578063522e117711610140578063522e117714610385578063551512de1461038d57806370a08231146103c3578063715018a6146103e9576101a9565b806334d1adb51461031d578063395093511461033a57806342966c6814610366576101a9565b806306fdde03146101ae578063095ea7b31461022b57806318160ddd1461026b57806323b872dd1461028557806326224c64146102bb578063313ce567146102ff575b600080fd5b6101b6610551565b6040805160208082528351818301528351919283929083019185019080838360005b838110156101f05781810151838201526020016101d8565b50505050905090810190601f16801561021d5780820380516001836020036101000a031916815260200191505b509250505060405180910390f35b6102576004803603604081101561024157600080fd5b506001600160a01b0381351690602001356105e8565b604080519115158252519081900360200190f35b610273610606565b60408051918252519081900360200190f35b6102576004803603606081101561029b57600080fd5b506001600160a01b0381358116916020810135909116906040013561060c565b6102e1600480360360208110156102d157600080fd5b50356001600160a01b0316610694565b60408051938452602084019290925282820152519081900360600190f35b6103076106f1565b6040805160ff9092168252519081900360200190f35b6102736004803603602081101561033357600080fd5b50356106fa565b6102576004803603604081101561035057600080fd5b506001600160a01b038135169060200135610737565b6103836004803603602081101561037c57600080fd5b5035610785565b005b610257610799565b610383600480360360608110156103a357600080fd5b506001600160a01b038135811691602081013591604090910135166107cb565b610273600480360360208110156103d957600080fd5b50356001600160a01b03166108e7565b610383610902565b6102736109c6565b6103836004803603604081101561040f57600080fd5b506001600160a01b0381351690602001356109ea565b610273610a44565b6102736004803603604081101561044357600080fd5b50803590602001356001600160a01b0316610a9f565b610461610cbf565b604080516001600160a01b039092168252519081900360200190f35b6101b6610cd3565b610273610d34565b610257600480360360408110156104a357600080fd5b506001600160a01b038135169060200135610d58565b610257600480360360408110156104cf57600080fd5b506001600160a01b038135169060200135610dc0565b610273610dd4565b6102736004803603604081101561050357600080fd5b506001600160a01b0381358116916020013516610e2f565b610273610e5a565b610273610e85565b6103836004803603602081101561054157600080fd5b50356001600160a01b0316610f01565b60038054604080516020601f60026000196101006001881615020190951694909404938401819004810282018101909252828152606093909290918301828280156105dd5780601f106105b2576101008083540402835291602001916105dd565b820191906000526020600020905b8154815290600101906020018083116105c057829003601f168201915b505050505090505b90565b60006105fc6105f56110d4565b84846110d8565b5060015b92915050565b60025490565b60006106198484846111c4565b610689846106256110d4565b610684856040518060600160405280602881526020016119c3602891396001600160a01b038a166000908152600160205260408120906106636110d4565b6001600160a01b03168152602081019190915260400160002054919061131f565b6110d8565b5060015b9392505050565b60008060006106a2846108e7565b92506106c8670de0b6b3a76400006106c26106bb610e5a565b8690611021565b906113b6565b90506106e8670de0b6b3a76400006106c26106e1610a44565b8490611021565b91509193909250565b60055460ff1690565b6000610600670de0b6b3a76400006106c2670de0b6b3a76400006106c261071f610a44565b61073161072a610e5a565b8990611021565b90611021565b60006105fc6107446110d4565b8461068485600160006107556110d4565b6001600160a01b03908116825260208083019390935260409182016000908120918c16815292529020549061107a565b6107966107906110d4565b8261141d565b50565b60007f00000000000000000000000000000000000000000000000000000000000000006107c4610dd4565b1015905090565b6107d36110d4565b6001600160a01b03166107e4610cbf565b6001600160a01b03161461083f576040805162461bcd60e51b815260206004820181905260248201527f4f776e61626c653a2063616c6c6572206973206e6f7420746865206f776e6572604482015290519081900360640190fd5b6001600160a01b0381166108845760405162461bcd60e51b81526004018080602001828103825260358152602001806119216035913960400191505060405180910390fd5b6108986001600160a01b0384168284611519565b604080516001600160a01b0380861682526020820185905283168183015290517f3ab9db27a4cdd8c603a752b62d5fbd93b4b3509fe2596708e9688e42bbac35769181900360600190a1505050565b6001600160a01b031660009081526020819052604090205490565b61090a6110d4565b6001600160a01b031661091b610cbf565b6001600160a01b031614610976576040805162461bcd60e51b815260206004820181905260248201527f4f776e61626c653a2063616c6c6572206973206e6f7420746865206f776e6572604482015290519081900360640190fd5b60055460405160009161010090046001600160a01b0316907f8be0079c531659141344cd1fd0a4f28419497f9722a3daafe3b4186f6b6457e0908390a360058054610100600160a81b0319169055565b7f000000000000000000000000000000000000000000000000000000000000000081565b6000610a21826040518060600160405280602481526020016119eb60249139610a1a86610a156110d4565b610e2f565b919061131f565b9050610a3583610a2f6110d4565b836110d8565b610a3f838361141d565b505050565b6000610a4e610799565b15610a625750670de0b6b3a76400006105e5565b610a9a7f00000000000000000000000000000000000000000000000000000000000000006106c2670de0b6b3a7640000610731610dd4565b905090565b6000427f000000000000000000000000000000000000000000000000000000000000000010610aff5760405162461bcd60e51b815260040180806020018281038252603c815260200180611858603c913960400191505060405180910390fd5b6001600160a01b038216610b445760405162461bcd60e51b815260040180806020018281038252602d815260200180611aaa602d913960400191505060405180910390fd5b610b4d336108e7565b831115610b8b5760405162461bcd60e51b815260040180806020018281038252602a815260200180611a30602a913960400191505060405180910390fd5b610b953330610e2f565b831115610bd35760405162461bcd60e51b815260040180806020018281038252602b815260200180611a5a602b913960400191505060405180910390fd5b610bdc836106fa565b9050610be8338461141d565b6006546040805163a9059cbb60e01b81526001600160a01b038581166004830152602482018590529151919092169163a9059cbb9160448083019260209291908290030181600087803b158015610c3e57600080fd5b505af1158015610c52573d6000803e3d6000fd5b505050506040513d6020811015610c6857600080fd5b5050604080513381526001600160a01b03841660208201528082018590526060810183905290517f6924de782c8b5f24144a945d93c937e0f7aac91e3a891105dca3c4536f5255299181900360800190a192915050565b60055461010090046001600160a01b031690565b60048054604080516020601f60026000196101006001881615020190951694909404938401819004810282018101909252828152606093909290918301828280156105dd5780601f106105b2576101008083540402835291602001916105dd565b7f000000000000000000000000000000000000000000000000000000000000000081565b60006105fc610d656110d4565b8461068485604051806060016040528060258152602001611b256025913960016000610d8f6110d4565b6001600160a01b03908116825260208083019390935260409182016000908120918d1681529252902054919061131f565b60006105fc610dcd6110d4565b84846111c4565b60007f00000000000000000000000000000000000000000000000000000000000000004211610e05575060006105e5565b610a9a427f000000000000000000000000000000000000000000000000000000000000000061156b565b6001600160a01b03918216600090815260016020908152604080832093909416825291909152205490565b600080610e65610606565b9050610e7f816106c2670de0b6b3a7640000610731610e85565b91505090565b600654604080516370a0823160e01b815230600482015290516000926001600160a01b0316916370a08231916024808301926020929190829003018186803b158015610ed057600080fd5b505afa158015610ee4573d6000803e3d6000fd5b505050506040513d6020811015610efa57600080fd5b5051919050565b610f096110d4565b6001600160a01b0316610f1a610cbf565b6001600160a01b031614610f75576040805162461bcd60e51b815260206004820181905260248201527f4f776e61626c653a2063616c6c6572206973206e6f7420746865206f776e6572604482015290519081900360640190fd5b6001600160a01b038116610fba5760405162461bcd60e51b81526004018080602001828103825260268152602001806118d96026913960400191505060405180910390fd5b6005546040516001600160a01b0380841692610100900416907f8be0079c531659141344cd1fd0a4f28419497f9722a3daafe3b4186f6b6457e090600090a3600580546001600160a01b0390921661010002610100600160a81b0319909216919091179055565b60008261103057506000610600565b8282028284828161103d57fe5b041461068d5760405162461bcd60e51b81526004018080602001828103825260218152602001806119a26021913960400191505060405180910390fd5b60008282018381101561068d576040805162461bcd60e51b815260206004820152601b60248201527f536166654d6174683a206164646974696f6e206f766572666c6f770000000000604482015290519081900360640190fd5b3390565b6001600160a01b03831661111d5760405162461bcd60e51b8152600401808060200182810382526024815260200180611ad76024913960400191505060405180910390fd5b6001600160a01b0382166111625760405162461bcd60e51b81526004018080602001828103825260228152602001806118ff6022913960400191505060405180910390fd5b6001600160a01b03808416600081815260016020908152604080832094871680845294825291829020859055815185815291517f8c5be1e5ebec7d5bd14f71427d1e84f3dd0314c0f7b2291e5b200ac8c7c3b9259281900390910190a3505050565b6001600160a01b0383166112095760405162461bcd60e51b8152600401808060200182810382526025815260200180611a856025913960400191505060405180910390fd5b6001600160a01b03821661124e5760405162461bcd60e51b81526004018080602001828103825260238152602001806118946023913960400191505060405180910390fd5b611259838383610a3f565b61129681604051806060016040528060268152602001611956602691396001600160a01b038616600090815260208190526040902054919061131f565b6001600160a01b0380851660009081526020819052604080822093909355908416815220546112c5908261107a565b6001600160a01b038084166000818152602081815260409182902094909455805185815290519193928716927fddf252ad1be2c89b69c2b068fc378daa952ba7f163c4a11628f55a4df523b3ef92918290030190a3505050565b600081848411156113ae5760405162461bcd60e51b81526004018080602001828103825283818151815260200191508051906020019080838360005b8381101561137357818101518382015260200161135b565b50505050905090810190601f1680156113a05780820380516001836020036101000a031916815260200191505b509250505060405180910390fd5b505050900390565b600080821161140c576040805162461bcd60e51b815260206004820152601a60248201527f536166654d6174683a206469766973696f6e206279207a65726f000000000000604482015290519081900360640190fd5b81838161141557fe5b049392505050565b6001600160a01b0382166114625760405162461bcd60e51b8152600401808060200182810382526021815260200180611a0f6021913960400191505060405180910390fd5b61146e82600083610a3f565b6114ab816040518060600160405280602281526020016118b7602291396001600160a01b038516600090815260208190526040902054919061131f565b6001600160a01b0383166000908152602081905260409020556002546114d1908261156b565b6002556040805182815290516000916001600160a01b038516917fddf252ad1be2c89b69c2b068fc378daa952ba7f163c4a11628f55a4df523b3ef9181900360200190a35050565b604080516001600160a01b038416602482015260448082018490528251808303909101815260649091019091526020810180516001600160e01b031663a9059cbb60e01b179052610a3f9084906115c8565b6000828211156115c2576040805162461bcd60e51b815260206004820152601e60248201527f536166654d6174683a207375627472616374696f6e206f766572666c6f770000604482015290519081900360640190fd5b50900390565b600061161d826040518060400160405280602081526020017f5361666545524332303a206c6f772d6c6576656c2063616c6c206661696c6564815250856001600160a01b03166116799092919063ffffffff16565b805190915015610a3f5780806020019051602081101561163c57600080fd5b5051610a3f5760405162461bcd60e51b815260040180806020018281038252602a815260200180611afb602a913960400191505060405180910390fd5b60606116888484600085611690565b949350505050565b6060824710156116d15760405162461bcd60e51b815260040180806020018281038252602681526020018061197c6026913960400191505060405180910390fd5b6116da856117eb565b61172b576040805162461bcd60e51b815260206004820152601d60248201527f416464726573733a2063616c6c20746f206e6f6e2d636f6e7472616374000000604482015290519081900360640190fd5b600080866001600160a01b031685876040518082805190602001908083835b602083106117695780518252601f19909201916020918201910161174a565b6001836020036101000a03801982511681845116808217855250505050505090500191505060006040518083038185875af1925050503d80600081146117cb576040519150601f19603f3d011682016040523d82523d6000602084013e6117d0565b606091505b50915091506117e08282866117f1565b979650505050505050565b3b151590565b6060831561180057508161068d565b8251156118105782518084602001fd5b60405162461bcd60e51b815260206004820181815284516024840152845185939192839260440191908501908083836000831561137357818101518382015260200161135b56fe416c6c793a636c61696d496368693a3a206d757374207761697420666f722074686520636f6d6d656e63656d656e74206461746520746f207061737345524332303a207472616e7366657220746f20746865207a65726f206164647265737345524332303a206275726e20616d6f756e7420657863656564732062616c616e63654f776e61626c653a206e6577206f776e657220697320746865207a65726f206164647265737345524332303a20617070726f766520746f20746865207a65726f2061646472657373416c6c793a656d657267656e637957697468647261773a3a20746f2063616e6e6f742062652074686520307830206164647265737345524332303a207472616e7366657220616d6f756e7420657863656564732062616c616e6365416464726573733a20696e73756666696369656e742062616c616e636520666f722063616c6c536166654d6174683a206d756c7469706c69636174696f6e206f766572666c6f7745524332303a207472616e7366657220616d6f756e74206578636565647320616c6c6f77616e636545524332303a206275726e20616d6f756e74206578636565647320616c6c6f77616e636545524332303a206275726e2066726f6d20746865207a65726f2061646472657373416c6c793a636c61696d496368693a3a20696e73756666696369656e7420416c6c792062616c616e6365416c6c793a636c61696d496368693a3a20696e737566666963656e7420416c6c7920616c6c6f77616e636545524332303a207472616e736665722066726f6d20746865207a65726f2061646472657373416c6c793a636c61696d496368693a3a20746f2063616e6e6f742062652074686520307830206164647265737345524332303a20617070726f76652066726f6d20746865207a65726f20616464726573735361666545524332303a204552433230206f7065726174696f6e20646964206e6f74207375636365656445524332303a2064656372656173656420616c6c6f77616e63652062656c6f77207a65726fa2646970667358221220472b5d6c71e77d86a0846eceb9b203171f004446396ae27af6015f8a2bd3662664736f6c63430007060033416c6c793a636f6e7374727563746f723a3a20636f6d6d656e63656d656e745f2063616e6e6f7420626520696e207468652070617374536166654d6174683a206d756c7469706c69636174696f6e206f766572666c6f77",
  "devdoc": {
    "kind": "dev",
    "methods": {
      "allowance(address,address)": {
        "details": "See {IERC20-allowance}."
      },
      "approve(address,uint256)": {
        "details": "See {IERC20-approve}. Requirements: - `spender` cannot be the zero address."
      },
      "balanceOf(address)": {
        "details": "See {IERC20-balanceOf}."
      },
      "burn(uint256)": {
        "details": "Destroys `amount` tokens from the caller. See {ERC20-_burn}."
      },
      "burnFrom(address,uint256)": {
        "details": "Destroys `amount` tokens from `account`, deducting from the caller's allowance. See {ERC20-_burn} and {ERC20-allowance}. Requirements: - the caller must have allowance for ``accounts``'s tokens of at least `amount`."
      },
      "decimals()": {
        "details": "Returns the number of decimals used to get its user representation. For example, if `decimals` equals `2`, a balance of `505` tokens should be displayed to a user as `5,05` (`505 / 10 ** 2`). Tokens usually opt for a value of 18, imitating the relationship between Ether and Wei. This is the value {ERC20} uses, unless {_setupDecimals} is called. NOTE: This information is only used for _display_ purposes: it in no way affects any of the arithmetic of the contract, including {IERC20-balanceOf} and {IERC20-transfer}."
      },
      "decreaseAllowance(address,uint256)": {
        "details": "Atomically decreases the allowance granted to `spender` by the caller. This is an alternative to {approve} that can be used as a mitigation for problems described in {IERC20-approve}. Emits an {Approval} event indicating the updated allowance. Requirements: - `spender` cannot be the zero address. - `spender` must have allowance for the caller of at least `subtractedValue`."
      },
      "increaseAllowance(address,uint256)": {
        "details": "Atomically increases the allowance granted to `spender` by the caller. This is an alternative to {approve} that can be used as a mitigation for problems described in {IERC20-approve}. Emits an {Approval} event indicating the updated allowance. Requirements: - `spender` cannot be the zero address."
      },
      "name()": {
        "details": "Returns the name of the token."
      },
      "owner()": {
        "details": "Returns the address of the current owner."
      },
      "renounceOwnership()": {
        "details": "Leaves the contract without owner. It will not be possible to call `onlyOwner` functions anymore. Can only be called by the current owner. NOTE: Renouncing ownership will leave the contract without an owner, thereby removing any functionality that is only available to the owner."
      },
      "symbol()": {
        "details": "Returns the symbol of the token, usually a shorter version of the name."
      },
      "totalSupply()": {
        "details": "See {IERC20-totalSupply}."
      },
      "transfer(address,uint256)": {
        "details": "See {IERC20-transfer}. Requirements: - `recipient` cannot be the zero address. - the caller must have a balance of at least `amount`."
      },
      "transferFrom(address,address,uint256)": {
        "details": "See {IERC20-transferFrom}. Emits an {Approval} event indicating the updated allowance. This is not required by the EIP. See the note at the beginning of {ERC20}. Requirements: - `sender` and `recipient` cannot be the zero address. - `sender` must have a balance of at least `amount`. - the caller must have allowance for ``sender``'s tokens of at least `amount`."
      },
      "transferOwnership(address)": {
        "details": "Transfers ownership of the contract to a new account (`newOwner`). Can only be called by the current owner."
      }
    },
    "version": 1
  },
  "userdoc": {
    "kind": "user",
    "methods": {
      "constructor": {
        "notice": "following the airdrop, the deployer is required to burn any surplus Ally (because totalSupply() is used in calculations) and send ICHI to the contract."
      }
    },
    "version": 1
  },
  "storageLayout": {
    "storage": [
      {
        "astId": 481,
        "contract": "contracts/Ally.sol:Ally",
        "label": "_balances",
        "offset": 0,
        "slot": "0",
        "type": "t_mapping(t_address,t_uint256)"
      },
      {
        "astId": 487,
        "contract": "contracts/Ally.sol:Ally",
        "label": "_allowances",
        "offset": 0,
        "slot": "1",
        "type": "t_mapping(t_address,t_mapping(t_address,t_uint256))"
      },
      {
        "astId": 489,
        "contract": "contracts/Ally.sol:Ally",
        "label": "_totalSupply",
        "offset": 0,
        "slot": "2",
        "type": "t_uint256"
      },
      {
        "astId": 491,
        "contract": "contracts/Ally.sol:Ally",
        "label": "_name",
        "offset": 0,
        "slot": "3",
        "type": "t_string_storage"
      },
      {
        "astId": 493,
        "contract": "contracts/Ally.sol:Ally",
        "label": "_symbol",
        "offset": 0,
        "slot": "4",
        "type": "t_string_storage"
      },
      {
        "astId": 495,
        "contract": "contracts/Ally.sol:Ally",
        "label": "_decimals",
        "offset": 0,
        "slot": "5",
        "type": "t_uint8"
      },
      {
        "astId": 7,
        "contract": "contracts/Ally.sol:Ally",
        "label": "_owner",
        "offset": 1,
        "slot": "5",
        "type": "t_address"
      },
      {
        "astId": 1655,
        "contract": "contracts/Ally.sol:Ally",
        "label": "ichi",
        "offset": 0,
        "slot": "6",
        "type": "t_contract(IERC20)1104"
      }
    ],
    "types": {
      "t_address": {
        "encoding": "inplace",
        "label": "address",
        "numberOfBytes": "20"
      },
      "t_contract(IERC20)1104": {
        "encoding": "inplace",
        "label": "contract IERC20",
        "numberOfBytes": "20"
      },
      "t_mapping(t_address,t_mapping(t_address,t_uint256))": {
        "encoding": "mapping",
        "key": "t_address",
        "label": "mapping(address => mapping(address => uint256))",
        "numberOfBytes": "32",
        "value": "t_mapping(t_address,t_uint256)"
      },
      "t_mapping(t_address,t_uint256)": {
        "encoding": "mapping",
        "key": "t_address",
        "label": "mapping(address => uint256)",
        "numberOfBytes": "32",
        "value": "t_uint256"
      },
      "t_string_storage": {
        "encoding": "bytes",
        "label": "string",
        "numberOfBytes": "32"
      },
      "t_uint256": {
        "encoding": "inplace",
        "label": "uint256",
        "numberOfBytes": "32"
      },
      "t_uint8": {
        "encoding": "inplace",
        "label": "uint8",
        "numberOfBytes": "1"
      }
    }
  }
}